S0180000454550524F4D20746F205043412D34322E73726563BA
S11300000C94FE000C9410010C9410010C9410013B
S11300100C9410010C9410010C9410010C94100118
S11300200C9410010C9410010C9410010C94100108
S11300300C9410010C944C020C9410010C941001BB
S11300400C9410010C9410010C9410010C941001E8
S11300500C9410010C9410010C9410010C941001D8
S11300600C9410010C9410010C9410010C941001C8
S11300700C9410010C9410010C9410010C941001B8
S11300800C9410010C9410010C9410010C941001A8
S11300900C9410010C9410010C9410010C94100198
S11300A00C9410010C9410010C9410010C94100188
S11300B00C9410010C9410010C9472020C94100115
S11300C00C9410010C9410010C9410010C94100168
S11300D00C9410010C9410010C9410010C94100158
S11300E00C9410010C9410010C9410010C94100148
S11300F00C9410010C9410010C9410010C94100138
S11301000C9410010C9410010C9498020C9410019E
S11301100C9410010C9410010C9410010C94100117
S11301200C9410010C9410010C9410010C94100107
S11301300C9410010C9410010C9410010C941001F7
S11301400C9410010C9410010C9410010C941001E7
S11301500C9410010C9410010C9410010C941001D7
S11301600C9410010C9410010C9410010C941001C7
S11301700C9410010C9410010C9410010C941001B7
S11301800C9410010C9410010C9410010C941001A7
S11301900C9410010C9410010C9410010C94100197
S11301A00C9410010C9410010C9410010C94100187
S11301B00C9410010C9410010C9410010C94100177
S11301C00C9410010C9410010C9410010C94100167
S11301D00C9410010C9410010C9410010C94100157
S11301E00C9410010C9410010C9410010C94100147
S11301F00C9410010C9410010C94100111241FBED6
S1130200CFEFCDBFDFE2DEBF20E2A0E0B0E201C06D
S11302101D92A737B207E1F70E9424020C948703CA
S11302200C940000CF93DF93E0E5F0E080818260DE
S1130230808387E893E10197F1F700C0000088ED1F
S113024084BF21E020934000C1E1D6E088E18883A7
S1130250A2E1B6E08C93E3E1F6E080839881988391
S11302609C919C939081926090839EE090930A0667
S113027020930906E1E0F6E030E2308390E19083D8
S1130280E5E0F6E03083908392E09093410690930A
S1130290450680935006909381069093850680933B
S11302A0900680EB8093610680E58093C0092093DB
S11302B0A2002FE540E460E874E081E090E20E944F
S11302C0B2022FE540E460EA74E08CE390E2DF914F
S11302D0CF910C94B202BF92CF92DF92EF92FF9231
S11302E00F931F93CF93DF93CDB7DEB72897CDBF7E
S11302F0DEBF8C01B62E7A01F9824A8322E0AE0178
S11303004F5F5F4F0E94FA022FE738E381E02150EC
S113031030408040E1F700C0000041E06B2DC8018F
S11303200E9400039FE7E8E3F1E09150E040F040D1
S1130330E1F700C000002FEFE21AF20AF801C48CC2
S1130340D12CDC2CCC24F982EA8222E0AE014F5F6E
S11303505F4F6B2DC8010E94FA02FFE728E331E0EA
S1130360F15020403040E1F700C0000041E06B2D27
S1130370C8010E9400038FE798E3E1E081509040B8
S1130380E040E1F700C00000F801848D9601282BBD
S1130390C9012896CDBFDEBFDF91CF911F910F9188
S11303A0FF90EF90DF90CF90BF900895AF92BF92EF
S11303B0DF92EF92FF920F931F93CF93DF93CDB70A
S11303C0DEB72897CDBFDEBF7C01D62E8A01590146
S11303D00E946B018A159B0551F119830A83BB8224
S11303E023E0AE014F5F5F4F6D2DC7010E94FA02FB
S11303F02FE788E391E0215080409040E1F700C06E
S113040000000F5F1F4F19830A83AB8223E0AE0104
S11304104F5F5F4F6D2DC7010E94FA022FE788E3FB
S113042091E0215080409040E1F700C00000289600
S1130430CDBFDEBFDF91CF911F910F91FF90EF9061
S1130440DF90BF90AF9008950E941201789410E15C
S113045000E210930506009306068091002088238D
S1130460C1F31093060600930506C0E0D0E0AE0188
S113047061E58CE390E20E946B019C01AE0161E5B1
S113048081E090E20E94D6012296CC388AE0D80717
S113049071F710920020DDCF1F920F920FB60F92CA
S11304A011242F933F934F935F936F937F938F9375
S11304B09F93AF93BF93EF93FF9381E090E20E94E9
S11304C07303FF91EF91BF91AF919F918F917F91B2
S11304D06F915F914F913F912F910F900FBE0F90AD
S11304E01F9018951F920F920FB60F9211242F93FD
S11304F03F934F935F936F937F938F939F93AF93A8
S1130500BF93EF93FF938CE390E20E947303FF91F8
S1130510EF91BF91AF919F918F917F916F915F9177
S11305204F913F912F910F900FBE0F901F901895F0
S11305301F920F920FB60F9211248F938091002077
S1130540811107C08091080683FD03C081E0809378
S113055000208FEF80930C068F910F900FBE0F90A9
S11305601F901895FC01608371834863DB01119629
S11305704C93A081B18115962C930190F081E02DCC
S113058081E0848308950F93CF93DF93FC012A3194
S113059050F50A3140F581AD811125C081E081AF6C
S11305A012AE660F6283DA0180E090E0821738F4BD
S11305B03D91EF01C80FD91F3B830196F7CF25ABBF
S11305C006AB17AA10AE85A9882319F082818E7F05
S11305D005C086A9882349F0828181600190F08159
S11305E0E02D868302C080E001C081E0DF91CF91DD
S11305F00F9108950F9300E00E94C3020F91089594
S11306000F93042F20E040E050E00E94C3020F91BA
S11306100895FC01A081B18114968C91149782FFF6
S113062002C094E001C093E092AF886014968C936A
S113063011AE0895CF93DF93FC0125A996A9A0815B
S1130640B18114968C91149784FF05C083E01396AE
S11306508C9385E01AC087A9821758F487A9EF0103
S1130660C80FD11D8B8117968C9387A98F5F87AB99
S11306700EC080AD891728F48281816016968C9310
S113068006C083E013968C9381E082AF11AEDF91B4
S1130690CF910895FC0180ADA081B181893160F4CE
S11306A017968C9190ADDF01A90FB11D5C968C93C8
S11306B080AD8F5F80AF06C083E013968C9382E099
S11306C082AF11AE96A980ADA081B181891720F4C3
S11306D082E013968C93089587E013968C9381E0BF
S11306E082AF11AE0895DC01ED91FC912481322F8B
S11306F03C7011F00C94090326FD0C941A0327FD99
S11307000C944A0326E0FC0122AF11AE0895F8943C
S1050710FFCF15
S9030000FC
