S00E00005043412D34322E73726563AF
S11300000C943C010C9459010C9459010C94590121
S11300100C9459010C9459010C9459010C945901F4
S11300200C9459010C9459010C94E71D0C9459013A
S11300300C9459010C94EE200C9459010C94590120
S11300400C9459010C9459010C9459010C945901C4
S11300500C9459010C9459010C9459010C945901B4
S11300600C9459010C9459010C9459010C945901A4
S11300700C9459010C9459010C9459010C94590194
S11300800C9459010C9459010C9459010C94590184
S11300900C9459010C9459010C9459010C94590174
S11300A00C9459010C9459010C9459010C94590164
S11300B00C9459010C9459010C9418210C94590175
S11300C00C9459010C9459010C9459010C94590144
S11300D00C9459010C9459010C9459010C94590134
S11300E00C9459010C9459010C9459010C94590124
S11300F00C9459010C9459010C9459010C94590114
S11301000C9459010C9459010C9470210C945901CC
S11301100C9459010C9459010C9459010C945901F3
S11301200C9459010C9459010C9459010C945901E3
S11301300C9459010C9459010C9459010C945901D3
S11301400C9459010C9459010C9459010C945901C3
S11301500C9459010C9459010C9459010C945901B3
S11301600C9459010C9459010C9459010C945901A3
S11301700C9459010C9459010C9459010C94590193
S11301800C9459010C9459010C9459010C94590183
S11301900C9459010C9459010C9459010C94590173
S11301A00C9459010C9459010C9459010C94590163
S11301B00C9459010C9459010C9459010C94590153
S11301C00C9459010C9459010C9459010C94590143
S11301D00C9459010C9459010C9459010C94590133
S11301E00C9459010C9459010C9459010C94590123
S11301F00C9459010C9459010C9459012E0F720E50
S1130200BC0DD20DF40D0A0E2C0E430E500E7F0EB3
S1130210910EA40EB40EC90ED90EEE0E0B0F0800EB
S11302200000BE922449123EABAAAA2ABECDCCCC71
S11302304C3E00000080BEABAAAAAA3E000000000B
S1130240BF000000803F0000000000084178D3BBDD
S11302504387D1133D190E3CC3BD4282AD2B3E688A
S1130260EC8276BED98FE1A93E4C80EFFFBE01C47B
S1130270FF7F3F000000000011241FBECFEFCDBF61
S1130280DFE2DEBF13E2A0E0B0E2EAEAF9E702C08F
S113029005900D92AE3DB107D9F725E2AEEDB3E27C
S11302A001C01D92A339B207E1F70E94DD1C0C9432
S11302B0D33C0C940000CF92DF92EF92FF92E0E1E6
S11302C0E0936606E82FE068E093C309E091C20971
S11302D0E7FFFCCFC72ED82EE92EFF24C092C30916
S11302E0E091C209E7FFFCCF6093C3098091C20982
S11302F087FFFCCF80E090E069017A01082E04C0FA
S1130300F694E794D794C7940A94D2F7C092C30999
S11303106091C20967FFFCCF08968032910561F7AE
S113032080E180936506FF90EF90DF90CF90089571
S11303300F931F9320E120936606282F20682093B3
S1130340C3092091C20927FFFCCF072F182F292F9B
S113035033270093C3092091C20927FFFCCF609380
S1130360C3098091C20987FFFCCF4093C3098091E0
S1130370C20987FFFCCF5093C3098091C20987FF4C
S1130380FCCF80E1809365061F910F9108950F9330
S11303901F9320E120936606282F20682093C30929
S11303A02091C20927FFFCCF072F182F292F3327AD
S11303B00093C3092091C20927FFFCCF6093C309AE
S11303C08091C20987FFFCCF4093C3098091C20981
S11303D087FFFCCF80E1809365061F910F910895FC
S11303E020E1209366069C012D5F3F4FFC01419163
S11303F0CF014093C3094091C20947FFFCCF821744
S11304009307A1F780E18093650608950F931F93E6
S113041020E1209366068C01222733270093C30929
S11304202091C20927FFFCCF072F182F292F33272C
S11304300093C3092091C20927FFFCCF6093C3092D
S11304408091C20987FFFCCF8FEF8093C30980910D
S1130450C20987FFFCCF8FEF8093C3098091C20943
S113046087FFFCCF8091C30990E1909365061F91AB
S11304700F91089581E080936106809366062FE7CB
S113048038E391E0215030409040E1F700C0000093
S1130490809365062FE738E381E0215030408040A7
S11304A0E1F700C0000088E090E20E94F0018EEDC8
S11304B093E20E94F00160E070E280E390E00E9429
S11304C006028C37C1F744EA51E06CE270E280E343
S11304D090E00E94980145E450E060E370E280E31C
S11304E090E00E94980140E050E068E370E280E30D
S11304F090E00E94980149E250E06CE370E280E3EE
S113050090E00E94980144E251E060E470E280E3EC
S113051090E00E9498014DE050E064E470E280E3D2
S113052090E00E94980140E050E06CE470E280E3C7
S113053090E00E9498014AE050E060E570E280E3B8
S113054090E00E94980140E064E670E280E390E06D
S11305500E94C70141E06CE670E280E390E00E94F3
S1130560C70141E068E670E280E390E00E94C701C1
S113057040E451E064E370E280E390E00E9498017B
S113058040EF50E068E470E280E390E00E9498015C
S113059028EC3FEF4FEF52E060E070E080E390E042
S11305A00E945B0127E030E040E056E264E070E046
S11305B080E390E00E945B0120E030E0A90168E064
S11305C070E080E390E00E945B0142E064E570E249
S11305D080E390E00E94C70140E860E970E280E3B4
S11305E090E00E94C70140E864E970E280E390E093
S11305F00E94C70142E060E770E280E390E00C945F
S1130600C701CF92DF92EF92FF92CF93DF936B01FA
S11306107C01C091E123D091E223CE01A0E0B0E0BF
S1130620BC01CD0170588F4C9F4FA70196010E94C9
S11306305B01AE014C5F5F4F5F704093E1235093C9
S1130640E22381E0C8168FEFD806E806F80661F4C5
S11306506CEF70E280E390E0DF91CF91FF90EF9038
S1130660DF90CF900C949801DF91CF91FF90EF90A1
S1130670DF90CF900895CF93DF93AC01C091E12335
S1130680D091E223CE01A0E0B0E0BC01CD017058CE
S11306908F4C9F4F0E9498012296DF70C093E123F4
S11306A0D093E223DF91CF910895CF93DF93482F26
S11306B0C091E123D091E223CE01A0E0B0E0BC01DF
S11306C0CD0170588F4C9F4F0E94C7012196DF7057
S11306D0C093E123D093E223DF91CF910895AF92A9
S11306E0BF92CF92DF92EF92FF920F931F93CF931B
S11306F0DF935C016B017A01E9016CE07FEF8FEF1E
S11307009FEF0E940103C5010E943B03C6010E94A2
S11307103B03C7010E943B03CE010E943B03E80157
S11307208991882319F00E945503FACF8091E1231F
S11307309091E22383709927C4E0D0E0C81BD90BC1
S113074080E00E9455032197D9F7DF91CF911F9143
S11307500F91FF90EF90DF90CF90BF90AF900895EE
S1130760CF92DF92EF92FF920F931F938B0150E091
S113077060E070E037E0440F551F661F771F3A951D
S1130780D1F7C22ED12CE12CF12C6894F7F84C2926
S11307905D296E297F29117020E030E0ECE0000F24
S11307A0111F221F331FEA95D1F7402B512B622BC7
S11307B0732B9170A0E0B0E0F5E1880F991FAA1F98
S11307C0BB1FFA95D1F78A019B01082B192B2A2B01
S11307D03B2BC901B8011F910F91FF90EF90DF905F
S11307E0CF900895AF92BF92CF92EF92FF920F9362
S11307F01F93CF93DF93F82E162FEA0159018C2D06
S113080090E0A0E0B0E0DC0199278827B4609E293D
S1130810BC01CD01602B0E94010361E070E080E027
S11308209FE10E9401032F2D412FB501CE010E94AB
S1130830B0030E94010360E070E080E091E2DF9188
S1130840CF911F910F91FF90EF90CF90BF90AF90F9
S11308500C9401032F923F924F925F926F927F927A
S11308608F929F92AF92BF92CF92DF92EF92FF92BC
S11308700F931F93CF93DF93CDB7DEB72697CDBFEA
S1130880DEBF4C01D62EF42E190138018A2D90E0DA
S1130890A0E0B0E0DC01992788278F6FB460BC0129
S11308A0CD017C290E94010361E070E080E09FE1BA
S11308B00E9401031D821E822D2D30E029833A837C
S11308C08F2D90E08B839C83412C512C8D819E81B4
S11308D029813A8182179307CCF52B813C818D8144
S11308E09E81289FB001299F700D389F700D11249F
S11308F0072E000C880B990B0E94E63520E030E0AF
S113090040E05FE30E94F3365B016C01C201B10178
S11309100E94E4359B01AC01C601B5010E94CB34B1
S11309200E94B535ED81FE81E80DF91DC12CE12C45
S113093000E09301AB016F2D80810E94F2032D81B1
S11309403E812F5F3F4F2D833E83C0CF60E070E038
S113095080E091E22696CDBFDEBFDF91CF911F915B
S11309600F91FF90EF90DF90CF90BF90AF909F904A
S11309708F907F906F905F904F903F902F900C944A
S11309800103CF92DF92EF92FF920F931F93CF93C5
S1130990DF93CDB7DEB72D97CDBFDEBF9C01CE016F
S11309A001967C01FC01C9014AE0C42ED12C8F01BF
S11309B00E191F09009739F0B6010E94E837805DCF
S11309C08193CB01F4CF232B49F481E090E00E9482
S11309D0C338FC0180E38083CF0116C0C8010196AF
S11309E00E94C338F701E00FF11FDC0131979F012A
S11309F02E193F092F3F3F4F19F020812D93F6CF39
S1130A00FC01E00FF11F10822D96CDBFDEBFDF91F8
S1130A10CF911F910F91FF90EF90DF90CF900895A9
S1130A20BC01990F880B990B0E94E6350E949B36F6
S1130A3020E030E040E85FE30E94CB340E94AE3512
S1130A40CB0108959F92AF92BF92CF92DF92EF9223
S1130A50FF920F931F93CF93DF93CDB7DEB7279702
S1130A60CDBFDEBF7B016A015901902E6AE070E0C0
S1130A700E94D437CB0125E0EBE0F0E2DE011196D1
S1130A8001900D922A95E1F7FE01319623E030E0C2
S1130A900AE010E0009781F02230310531F0B8010E
S1130AA00E94D437805D8383CB0121503109319773
S1130AB02F3F4FEF340771F78E010F5F1F4F20E078
S1130AC030E0A501B601C7010E946F03992011F01F
S1130AD086E501C081E48E831F828E010A5F1F4F69
S1130AE020E030E0A501B601C70186960E946F039D
S1130AF02796CDBFDEBFDF91CF911F910F91FF905D
S1130B00EF90DF90CF90BF90AF909F900895AF92F9
S1130B10CF92EF920F931F93CF93DF931F92CDB792
S1130B20DEB73CE73983AE2CC02EE22E8B019C014C
S1130B3061E0CE0101960E942A040F90DF91CF91CB
S1130B401F910F91EF90CF90AF9008952F923F9205
S1130B504F925F926F927F928F929F92AF92BF92C9
S1130B60CF92DF92EF92FF920F931F93CF93DF9375
S1130B70EB0123E2C22ED12CA12CB12C1B0181E06C
S1130B80281A310832E3432E512CCB0142964C01F2
S1130B90360193E2691A7108C30169E170E00E94A9
S1130BA0E8379C01C5018C0D9D1DE12C00E0232B31
S1130BB089F520E047E1B10101970E9487058FEF95
S1130BC0A81AB80AC301B2010E94E837892B41F57B
S1130BD0C30165E070E00E94E8378B01CB010E94FD
S1130BE0C1047C01C8010E941005870120E030E0A7
S1130BF045E150E0B40102971CF4C601039704C018
S1130C00C60109978A0D9B1D0E946F03C7010E94AC
S1130C105B3906C020E044E1BE0101970E948705CC
S1130C2095E0C90ED11C87E2C81681E0D80609F008
S1130C30AFCF83E2C82ED12CA12CB12C99E1892EFF
S1130C40912C3E0198E2690E711C6F96C601839740
S1130C50B4010E94E8379C01C5018C0D9D1DE12C57
S1130C6000E0232B51F420E047E1BE0101970E94EC
S1130C7087058FEFA81AB80A06C020E044E1B30143
S1130C8001970E94870595E0C90ED11C87E2C8161A
S1130C9081E0D806D9F6DF91CF911F910F91FF9093
S1130CA0EF90DF90CF90BF90AF909F908F907F9008
S1130CB06F905F904F903F902F900895CF92DF9266
S1130CC0EF92FF920F931F93CF93DF938C017B01DD
S1130CD06A01C5E0D0E0A8952FEF80E792E02150AB
S1130CE080409040E1F700C0000060E07FEF8FEFAC
S1130CF09FEF0E9401036CED76EE86EE92E00E9477
S1130D00010367E070E080E096E20E940103A6011F
S1130D10B701C8010E94A60560E070E0CB010E9403
S1130D20010361E07FEF8FEF9FEF0E9401032FE348
S1130D308DE093E0215080409040E1F700C0000036
S1130D4067E37FEF8FEF9FEF0E94010366E070E09F
S1130D5080E090E00E94010360E070E0CB010E941B
S1130D6001038EE190E00E943B0385E090E00E9445
S1130D703B0388E191E00E943B0380E590E00E9400
S1130D803B03219709F0A7CFDF91CF911F910F91DA
S1130D90FF90EF90DF90CF9008954F925F926F9203
S1130DA07F928F929F92AF92BF92CF92DF92EF92F7
S1130DB0FF920F931F93CF93DF93CDB7DEB7EC97DA
S1130DC0CDBFDEBF7C01DC019E968C91882309F4A3
S1130DD05CC169E070E080E09FE10E94010360E093
S1130DE070E08FEF94E00E94010368EC70E080E013
S1130DF09EE00E94010360EF70E088E790E40E94A7
S1130E00010360EB71E088E899E40E940103F701B3
S1130E10838D811117C06FEF7FEF8FEF94E00E94F5
S1130E20010360E171E088E890E40E94010360E955
S1130E3071E088E799E40E94010360E070E08FEFBD
S1130E4094E016C06FEF7FEF8FEF94E00E940103F0
S1130E5060EF70E088E790E40E94010360EB71E0CA
S1130E6088E899E40E94010360E070E080E094E087
S1130E700E9401030AE110E220E030E04AE150E080
S1130E806AE070E080E590E00E946F030DE210E2FA
S1130E9020E030E046E150E064E170E083E290E07D
S1130EA00E946F038091192490911A240E94C10416
S1130EB08C0120E030E04AE150E06AE070E08BEE23
S1130EC090E00E946F0369E070E080E09FE10E947F
S1130ED0010360E070E08FEF94E00E94010368EC8E
S1130EE070E080E09EE00E94010360E773E088E721
S1130EF090E40E94010360E374E088E899E40E94AE
S1130F000103D7015B968C918130B9F46FEF7FEFC9
S1130F108FEF94E00E94010360E973E088E890E4B5
S1130F200E94010360E174E088E799E40E940103F0
S1130F3060E070E08FEF94E016C06FEF7FEF8FEF0B
S1130F4094E00E94010360E773E088E790E40E9464
S1130F50010360E374E088E899E40E94010360E01F
S1130F6070E080E094E00E94010302E510E220E0DA
S1130F7030E04AE150E067E370E08BE490E00E94E7
S1130F806F0360911D2470911E2480911F24909101
S1130F90202428EE33E040E050E00E941E38C901CE
S1130FA00E94C1048C0120E030E04AE150E067E394
S1130FB070E08BEE90E00E946F0306E610E220E002
S1130FC030E04AE150E067E370E08EE091E00E9497
S1130FD06F0369E070E080E09FE10E94010360E03C
S1130FE070E08FEF94E00E94010368EC70E080E011
S1130FF09EE00E94010360EF75E088E790E40E94A0
S1131000010360EB76E088E899E40E940103F701AC
S1131010838D8230B9F46FEF7FEF8FEF94E00E94FD
S1131020010360E176E088E890E40E94010360E94E
S113103076E088E799E40E94010360E070E08FEFB6
S113104094E016C06FEF7FEF8FEF94E00E940103EE
S113105060EF75E088E790E40E94010360EB76E0BE
S113106088E899E40E94010360E070E080E094E085
S11310700E9401030AE610E220E030E04AE150E079
S11310806FE570E082E890E022C3D70114968C915A
S11310908150823008F066C069E070E080E09FE132
S11310A00E94010360E070E08FEF94E00E9401036E
S11310B068EC70E080E09EE00E94010360EF70E065
S11310C088E790E40E94010360EB71E088E899E40A
S11310D00E940103F701838D811117C06FEF7FEF29
S11310E08FEF94E00E94010360E171E088E890E4EE
S11310F00E94010360E971E088E799E40E9401031A
S113110060E070E08FEF94E016C06FEF7FEF8FEF39
S113111094E00E94010360EF70E088E790E40E948D
S1131120010360EB71E088E899E40E94010360E048
S113113070E080E094E00E94010300E710E220E008
S113114030E04AE150E06FE070E088E790E00E9410
S11311506F03D7018D919C91892B09F460C00FE72F
S113116010E25FC069E070E080E09FE10E9401034B
S113117064E674E68FEF94E00E94010368EC70E08B
S113118080E09EE00E94010360EF70E088E790E455
S11311900E94010360EB71E088E899E40E94010376
S11311A0F701838D811117C06FEF7FEF8FEF94E00C
S11311B00E94010360E171E088E890E40E94010369
S11311C060E971E088E799E40E94010360E570E555
S11311D08FEF94E016C06FEF7FEF8FEF94E00E94E3
S11311E0010360EF70E088E790E40E94010360EB84
S11311F071E088E899E40E94010360E570E580E508
S113120094E00E94010300E710E220E030E04AE1AC
S113121050E06FE070E088E790E00E946F0308E719
S113122010E220E030E04AE150E06FE070E08AEA4A
S113123090E00E946F03D7019F968C91882309F454
S1131240E5C169E070E080E09FE10E94010360E095
S113125070E08FEF94E00E94010368EC70E080E09E
S11312609EE00E94010360E773E088E790E40E9437
S1131270010360E374E088E899E40E940103F70144
S1131280838D8130B9F46FEF7FEF8FEF94E00E948C
S1131290010360E973E088E890E40E94010360E1DF
S11312A074E088E799E40E94010360E070E08FEF46
S11312B094E016C06FEF7FEF8FEF94E00E9401037C
S11312C060E773E088E790E40E94010360E374E060
S11312D088E899E40E94010360E070E080E094E013
S11312E00E94010304E810E220E030E04AE150E00B
S11312F067E370E084E690E00E946F0369E070E0C9
S113130080E09FE10E94010360E070E08FEF94E0D1
S11313100E94010368EC70E080E09EE00E940103FB
S113132060EF75E088E790E40E94010360EB76E0EB
S113133088E899E40E940103D7015B968C9182307E
S1131340B9F46FEF7FEF8FEF94E00E94010360E147
S113135076E088E890E40E94010360E976E088E79B
S113136099E40E94010360E070E08FEF94E016C0FE
S11313706FEF7FEF8FEF94E00E94010360EF75E061
S113138088E790E40E94010360EB76E088E899E442
S11313900E94010360E070E080E094E00E94010399
S11313A005E910E220E030E04AE150E06FE570E04A
S11313B082E890E00E946F03209110203091112068
S11313C02BAB3CAB88E0FE01F596DF01982F1D9214
S11313D09A95E9F729A73AA73A97DF01982F1D9222
S11313E09A95E9F72F8F38A33A97DF01982F1D922A
S11313F09A95E9F72D8B3E8B3A97DF01982F1D9232
S11314009A95E9F72B873C873A97DF01982F1D922D
S11314109A95E9F729833A833A97DF011D928A95D1
S1131420E9F7F701858D8F93848D8F930FE910E28F
S11314301F930F934E01F3E38F0E911C9F928F9293
S11314400E94EF39D7015F968C915F978F935E96D8
S11314508C918F931F930F935E01B9E2AB0EB11C75
S1131460BF92AF920E94EF39F70181A18F9380A1BF
S11314708F931F930F936E01FFE1CF0ED11CDF9268
S1131480CF920E94EF39D70193968C9193978F93C3
S113149092968C918F931F930F933E01B5E16B0E3F
S11314A0711C7F926F920E94EF39F70185A18F938F
S11314B084A18F931F930F932E01FBE04F0E511CB9
S11314C05F924F920E94EF39D70197968C9197972C
S11314D08F9396968C918F931F930F93FE01319661
S11314E07F01FF93EF930E94EF39CDBFDEBF63E32B
S11314F07FEF83E394E00E94010302EA10E220E01C
S113150030E040E150E062E870E08AE090E00E9460
S11315106F03840120E030E040E150E062E870E0D5
S11315208CE390E00E946F0309EA10E220E030E0CF
S113153040E150E066E970E08AE090E00E946F03C9
S1131540850120E030E040E150E066E970E08CE3A2
S113155090E00E946F0300EB10E220E030E040E1F5
S113156050E06AEA70E08AE090E00E946F0386012E
S113157020E030E040E150E06AEA70E08CE390E083
S11315800E946F0307EB10E220E030E040E150E0FE
S11315906EEB70E08AE090E00E946F03830120E02C
S11315A030E040E150E06EEB70E08CE390E00E94AC
S11315B06F030EEB10E220E030E040E150E062ED1A
S11315C070E08AE090E00E946F03820120E030E046
S11315D040E150E062ED70E08CE390E00E946F0324
S11315E005EC10E220E030E040E150E066EE70E00F
S11315F08AE090E00E946F03870120E030E040E140
S113160050E066EE70E08CE390E061C0D701D096C4
S11316108C91882309F45DC069E070E080E09FE16B
S11316200E94010360E070E08FEF94E00E940103E8
S113163068EC70E080E09EE00E94010360E773E0E4
S113164088E790E40E94010360E374E088E899E489
S11316500E940103F701838D8130B9F46FEF7FEFAE
S11316608FEF94E00E94010360E973E088E890E45E
S11316700E94010360E174E088E799E40E94010399
S113168060E070E08FEF94E016C06FEF7FEF8FEFB4
S113169094E00E94010360E773E088E790E40E940D
S11316A0010360E374E088E899E40E94010360E0C8
S11316B070E080E094E00E9401030CEC10E220E072
S11316C030E04AE150E067E370E084E690E00E9495
S11316D06F03EC96CDBFDEBFDF91CF911F910F91C9
S11316E0FF90EF90DF90CF90BF90AF909F908F903E
S11316F07F906F905F904F9008952F923F924F92FA
S11317005F926F927F928F929F92AF92BF92CF928D
S1131710DF92EF92FF920F931F93CF93DF93CDB796
S1131720DEB7A797CDBFDEBF4C013B011A012901EB
S1131730A89569E070E080E09FE10E94010360E009
S113174070E080E094E00E94010368EC70E080E0C7
S11317509EE00E94010360E277E088E790E40E9443
S1131760010360ED77E088E899E40E94010369E0F1
S113177070E080E09FE10E9401036FEF7FEF8FEF45
S113178094E00E94010368EC70E080E09EE00E9417
S1131790010360E477E088E890E40E94010360EBD1
S11317A077E088E799E40E94010360E070E080E05C
S11317B094E00E94010381E08FA3D10156968D919C
S11317C09C915797059728F461E0F4018481823055
S11317D009F060E0A895D2015C968D919C915D978B
S11317E0803D974008F4A0C0F30146895789D4018D
S11317F015968C91898393859A8394859B83F101B3
S113180093859C8394859D83D30118969C919E8394
S113181090859F8391E04530510508F090E09887CA
S11318206987F40191A99A87D30115969C9199230C
S113183019F021E0282702C020E030E021702B8736
S1131840F1019581992319F021E0282702C020E0B5
S113185030E021702C87D30117969C91992319F0BD
S113186021E0282702C020E030E021702D87F1011B
S11318709781992319F021E0282702C020E030E065
S113188021702E87D30116969C91992331F08111F2
S113189004C091E04530510508F490E091709F87B1
S11318A0F1019681992329F0811103C081E08627F3
S11318B002C080E090E08170888B1FA28091062096
S11318C0909107200196803191057CF4E1E0F0E0ED
S11318D0EC0FFD1FE80FF91F2081222399F3809359
S11318E006209093072081E08FA38FA1811117C058
S11318F02091062030910720FE01319680E090E08F
S11319002817390764F04191442339F08093062065
S11319109093072081E08FA302C00196F1CFD201FA
S11319205C961D921C925D978FA1811106C08FEF6A
S11319309FEF80930620909307208091DB20909165
S1131940DC20A091DD208CA39DA3AEA38091DE209A
S11319509091DF20A091E02089A39AA3ABA380916A
S1131960E1209091E220A091E3208E8F9F8FA8A385
S11319708091E4209091E520A091E6208B8F9C8FAC
S1131980AD8F8091E7209091E820A091E920888F85
S1131990998FAA8F8091EA209091EB20A091EC205E
S11319A0B091ED208C8B9D8BAE8BBF8BF201248983
S11319B0358946895789608D718D88EEA82E93E00C
S11319C0B92EC12CD12CE12CF12C00E010E0828D39
S11319D0938D0E944338233F3140410551056105F1
S11319E071058105910511F008F032C2D401989671
S11319F08C919897811119C099969C9199979111FE
S1131A0014C09A969C919A9791110FC09B969C91A1
S1131A109B9791110AC09C969C919C97911105C02B
S1131A209D969C91992309F494C0A8952091102027
S1131A303091112029833A83FE01339691E1DF012D
S1131A401D929A95E9F7882369F066E770E2CE0162
S1131A5001960E94E439BE016C5D7F4FCE01019670
S1131A600E94E439F40181A5882369F066E770E2F5
S1131A70CE0101960E94E439BE016F5D7F4FCE0115
S1131A8001960E94E439D4019A968C91882369F0D6
S1131A9066E770E2CE0101960E94E439BE01625EFF
S1131AA07F4FCE0101960E94E439F40183A5882377
S1131AB069F066E770E2CE0101960E94E439BE0146
S1131AC0655E7F4FCE0101960E94E439D4019C9655
S1131AD08C91882369F066E770E2CE0101960E943A
S1131AE0E439BE01685E7F4FCE0101960E94E4395D
S1131AF0F40185A5882369F066E770E2CE010196BA
S1131B000E94E439BE016C5E7F4FCE0101960E94B3
S1131B10E4396FEF70E080E094E00E9401030091EB
S1131B204E2510914F2520E030E04AE150E060E777
S1131B3070E08AE590E00E946F038E010F5F1F4FF3
S1131B4020E030E04AE150E060E770E08EEB90E0A6
S1131B5097C16FEF70E080E094E00E940103E09190
S1131B600620F09107203196E131F10508F08AC191
S1131B70E250FF4F0C943D38D30119968C9119977C
S1131B80811106C0DA968D919C91DB97892B29F0FF
S1131B9000912A2510912B2511C000912C2510911C
S1131BA02D2519C0F3018285811104C082AD93AD46
S1131BB0892B69F000912E2510912F2520E030E02B
S1131BC04AE150E060E770E082E390E059C100919F
S1131BD030251091312520E030E04AE150E060E703
S1131BE070E085E090E04CC1D10119968C91199771
S1131BF0811106C0DA968D919C91DB97892B29F08F
S1131C0000913C2510913D2511C000913E25109175
S1131C103F2519C0F1018285811104C082AD93ADC5
S1131C20892B69F0009140251091412520E030E096
S1131C304AE150E060E770E084E190E021C1009166
S1131C4042251091432520E030E04AE150E060E76E
S1131C5070E086E090E014C1D4018D919C91892BB1
S1131C6029F40091202510912125E9C00091322505
S1131C701091332520E030E04AE150E060E770E065
S1131C8084E490E0FDC0009144251091452520E0B6
S1131C9030E04AE150E060E770E085E490E0F0C0B5
S1131CA0F401858181111EC080819181892B69F4A1
S1131CB0009122251091232520E030E04AE150E0F4
S1131CC060E770E08AE590E0DBC000913425109174
S1131CD0352520E030E04AE150E060E770E08DE334
S1131CE090E0CEC000911E2510911F2520E030E029
S1131CF04AE150E060E770E089E690E0C1C0D401B9
S1131D0015968C918111EECF0091462510914725AF
S1131D1020E030E04AE150E060E770E08EE390E0DC
S1131D20AFC060E07BE980E094E00E940103009191
S1131D3050251091512520E030E04AE150E060E761
S1131D4070E088E790E09CC06FEF70E080E094E082
S1131D500E940103F40180819181892B81F000911B
S1131D603625109137256BC06FEF70E080E094E06A
S1131D700E940103D4018D919C91892B29F4009137
S1131D8024251091252539C0009148251091492515
S1131D9056C06FEF70E080E094E00E940103F4010C
S1131DA080819181892B81F000913A2510913B2506
S1131DB046C06FEF70E080E094E00E940103D4011C
S1131DC08D919C91892B29F4009128251091292526
S1131DD014C000914C2510914D2531C06FEF70E077
S1131DE080E094E00E940103F40180819181892BB9
S1131DF069F4009126251091272520E030E04AE17E
S1131E0050E060E770E083E790E03AC00091382545
S1131E101091392514C06FEF70E080E094E00E94C7
S1131E200103D4018D919C91892B29F400912625DD
S1131E301091272504C000914A2510914B2520E0DC
S1131E4030E04AE150E060E770E085E590E018C0DA
S1131E5080910620909107200196A1F460E070E043
S1131E6080E094E00E94010300911C2510911D253F
S1131E7020E030E04AE150E060E770E08BE690E07B
S1131E800E946F03A796CDBFDEBFDF91CF911F9154
S1131E900F91FF90EF90DF90CF90BF90AF909F9005
S1131EA08F907F906F905F904F903F902F90089508
S1131EB00F931F93A89569E070E080E09FE10E9472
S1131EC0010368EC70E080E09EE00E94010360E0A2
S1131ED070E080E094E00E94010368EC70E080E030
S1131EE09EE00E94010360911B2470911C24665F94
S1131EF07F4F84E0660F771F8A95E1F77F77CB01E8
S1131F00A0E0B0E0BC01CD01886790640E940103A9
S1131F1060911B2470911C246E5A7F4F94E0660FCD
S1131F20771F9A95E1F77F77CB01A0E0B0E0BC0181
S1131F30CD01886899640E9401036FEF7FEF8FEFF2
S1131F4094E00E94010360911B2470911C24645F3F
S1131F507F4F24E0660F771F2A95E1F77F77CB0147
S1131F60A0E0B0E0BC01CD01886890640E94010348
S1131F7060911B2470911C24605B7F4F34E0660FDA
S1131F80771F3A95E1F77F77CB01A0E0B0E0BC0181
S1131F90CD01886799640E94010360E070E080E0ED
S1131FA094E00E94010368EC70E080E09EE00E94EF
S1131FB0010360911B2470911C246B567F4F44E0F5
S1131FC0660F771F4A95E1F77F77CB01A0E0B0E079
S1131FD0BC01CD01886790640E94010360911B24B9
S1131FE070911C2462527F4F54E0660F771F5A95FC
S1131FF0E1F77F77CB01A0E0B0E0BC01CD018868B8
S113200099640E9401036FEF7FEF8FEF94E00E94C9
S1132010010360911B2470911C2469567F4FE4E0F6
S1132020660F771FEA95E1F77F77CB01A0E0B0E078
S1132030BC01CD01886890640E94010360911B2457
S113204070911C2465527F4FF4E0660F771FFA9558
S1132050E1F77F77CB01A0E0B0E0BC01CD01886758
S113206099640E94010369E070E080E09FE10E94AE
S1132070010360E070E080E094E00E94010368ECFA
S113208070E080E09EE00E94010360E277E088E770
S113209090E40E94010360ED77E088E899E40E94EF
S11320A0010369E070E080E09FE10E9401036FEFAB
S11320B07FEF8FEF94E00E94010368EC70E080E012
S11320C09EE00E94010360E477E088E890E40E94C7
S11320D0010360EB77E088E799E40E94010361E380
S11320E07AE489E894E00E9401030EEE10E220E015
S11320F030E04DE150E069E170E088E290E00E9458
S11321006F0306EF10E220E030E04DE150E069E1BA
S113211070E08DE990E00E946F0300E011E220E09E
S113212030E04DE150E062E370E082E390E00E9431
S11321306F0308E011E220E030E04DE150E062E39B
S113214070E087EA90E00E946F030EEE10E220E058
S113215030E04DE150E069E170E089E290E00E94F6
S11321606F0306EF10E220E030E04DE150E069E15A
S113217070E08EE990E00E946F0300E011E220E03D
S113218030E04DE150E062E370E083E390E00E94D0
S11321906F0308E011E220E030E04DE150E062E33B
S11321A070E088EA90E00E946F030EEE10E220E0F7
S11321B030E04DE150E06AE170E088E290E00E9496
S11321C06F0306EF10E220E030E04DE150E06AE1F9
S11321D070E08DE990E00E946F0300E011E220E0DE
S11321E030E04DE150E063E370E082E390E00E9470
S11321F06F0308E011E220E030E04DE150E063E3DA
S113220070E087EA90E00E946F0300E111E220E0B1
S113221030E04BE150E06EE670E08FE090E00E9429
S11322206F0309E111E220E030E04BE150E06EE69B
S113223070E08CED90E00E946F0360E070E080E05D
S113224094E00E9401038091E823811103C004E219
S113225011E202C00AE311E220E030E04DE150E077
S11322606AEA70E082E390E00E946F0361E37AE43B
S113227089E894E00E94010300E511E220E030E0E7
S11322804DE150E06AEA70E081E390E00E946F0360
S11322901F910F9108956AE070E00E94D43780E0A6
S11322A090E00E94E43520E030E040E05FE30E94EB
S11322B0CB340E94B5352AE0269FA001279F500DFC
S11322C01124CA0108952F923F924F925F926F9208
S11322D07F928F929F92AF92BF92CF92DF92EF92B2
S11322E0FF920F931F93CF93DF93CDB7DEB7289759
S11322F0CDBFDEBF1C017B016A015901A89569E0CD
S113230070E080E09FE10E94010360E070E080E003
S113231094E00E94010368EC70E080E09EE00E947B
S113232001038501065F1F4F64E0000F111F6A95CA
S1132330E1F70B831C832801E89457F8612C712C76
S1132340C301B201886790640E940103B801605818
S11323507B4F7F77CB01A0E0B0E0BC01CD01886862
S113236099640E9401036FEF7FEF8FEF94E00E9466
S11323700103B801605E7F4F7F77CB01A0E0B0E03E
S1132380BC01CD01886890640E940103B801605AC1
S11323907B4F7F77CB01A0E0B0E0BC01CD01886723
S11323A099640E94010360E170E080E09EE00E9475
S11323B001036FEF70E080E094E00E940103F701F5
S11323C0648975890B811C81005711092B813C811B
S11323D020523109490180E090E00E94E43520E078
S11323E030E048EC52E40E943C352FE439E54BE6FA
S11323F050E40E94CB3428E03AE844E45CE30E94D1
S11324003C3520E030E040E853E40E94CB340E94A5
S1132410B5357F77AB0160E070E0EFE0440F551F06
S1132420661F771FEA95D1F7DB01CA01B0648D837B
S11324309E83AF83B887C8019F77A0E0B0E02D8169
S11324403E814F815885282B392B4A2B5B2BCA019F
S1132450B9010E940103B4017F77CB01A0E0B0E091
S1132460BC01CD01876699640E940103A89560E1CF
S113247070E080E09EE00E9401036FEF70E080E076
S113248094E00E940103F701628973892B813C81E6
S1132490205D3D4F29833A834B815C8140585D4FD9
S11324A04A0180E090E00E94E43520E030E048EC0E
S11324B052E40E943C352FE439E54BE650E40E9497
S11324C0CB3428E03AE844E45CE30E943C3520E065
S11324D030E040E853E40E94CB340E94B5357F7766
S11324E0AB0160E070E0FFE0440F551F661F771FEB
S11324F0FA95D1F7DB01CA01B0648D839E83AF8363
S1132500B88789819A819F77A0E0B0E02D813E81D0
S11325104F815885282B392B4A2B5B2BCA01B901D3
S11325200E940103B4017F77CB01A0E0B0E0BC01BD
S1132530CD01876699640E940103D70158966D9175
S11325407C91599780E090E00E94E43522E53CE5D7
S11325504DE75FE30E94F3360E9460370E94B53571
S11325606838734128F06FEF7AE08FE094E004C09C
S113257060E074E688EC94E00E94010360E170E09E
S113258080E09EE00E940103F701608D718D80E080
S113259090E00E94E43522E53CE54DE75FE30E94CC
S11325A0F3360E9460370E94B5356630710508F431
S11325B071C0B6016A5E7F4F44E0660F771F4A958B
S11325C0E1F77F77CB01A0E0B0E05FE0880F991FCF
S11325D0AA1FBB1F5A95D1F7B0641F7720E030E0E3
S11325E0BC01CD01602B712B822B932B0E94010324
S11325F0D70158966D917C91599780E090E00E94A4
S1132600E43522E53CE54DE75FE30E94F3360E94A2
S113261060370E94B535CB010E944B118031910582
S1132620C0F0BC0180E090E00E94E43520E030E09E
S113263048EC52E40E943C352FE439E54BE650E483
S11326400E94CB3428E03AE844E45CE30E943C3541
S113265004C06BE177E88FE993E420E030E040E8E0
S113266053E40E94CB340E94B5357F77CB01A0E0C0
S1132670B0E03FE0880F991FAA1FBB1F3A95D1F71E
S1132680689476F8BC01CD016429752986299729B7
S11326900E940103F701868997898B3B934128F0B7
S11326A06FEF7AE08FE094E004C068E27EEB88E2AA
S11326B094E00E940103D70156968D919C915797FF
S11326C0069708F479C060E170E080E09EE00E9423
S11326D00103B6016A5E7F4F94E0660F771F9A95F7
S11326E0E1F77F77CB01A0E0B0E02FE0880F991FDE
S11326F0AA1FBB1F2A95D1F7AC01BD0170648B8161
S11327009C81805F9D4FFC01FF77CF01A0E0B0E08A
S11327108A019B01082B192B2A2B3B2BC901B801D9
S11327200E940103D70156968D919C9157970E9460
S11327304B1180319105C0F0BC0180E090E00E9413
S1132740E43520E030E048EC52E40E943C352FE4CC
S113275039E54BE650E40E94CB3428E03AE844E4FF
S11327605CE30E943C3504C06BE177E88FE993E4B5
S113277020E030E040E853E40E94CB340E94B535B9
S11327807F77CB01A0E0B0E0AC01BD018FE0440F46
S1132790551F661F771F8A95D1F7C4019F77A0E064
S11327A0B0E0B0648A019B01082B192B2A2B3B2B28
S11327B0C901B8010E94010360E070E080E091E289
S11327C00E940103A89560E070E080E091E00E941F
S11327D0010360E570E684E397E00E94010360E58D
S11327E070E382E098E00E94010361E070E080E021
S11327F09FE10E9401039601215F3F4F29833A83A1
S113280020E040E0B50189819A810E94B0030E94D2
S1132810010360E170E080E09EE00E94010360E05B
S113282070E080E094E00E940103D10114968C9141
S11328308230D1F4F70180819091A324891303C0DD
S113284006E511E206C09091212489130DC00EE51E
S113285011E220E030E04BE150E0B501675B7F4FCF
S113286089819A810E946F0306E611E220E030E03C
S11328704BE150E0C501C79689839A83BC01C60128
S113288088960E946F03D70158966D917C91599751
S113289080E090E00E94E43522E53CE54DE75FE30B
S11328A00E94F3360E9460370E94B535DC01CB01EB
S11328B001E02BE130E049815A81B60164577F4F32
S11328C00E9422054601B1EE8B0E911C00E02BE123
S11328D030E049815A81B401F701868997890E94C1
S11328E02205D7011F968C91F501E65BFF4FE98322
S11328F0FA83882361F00FE611E220E030E04BE137
S113290050E0BF01C6018E599F4F0E946F0300E043
S11329102BE130E049815A81B401D70150968D9161
S11329209C9151970E942205F6013596E983FA831A
S1132930C12CE12C9501AF016BE186E50E94F20305
S113294095012C5D3F4F49815A816BE181E40E94DE
S1132950F2032896CDBFDEBFDF91CF911F910F9177
S1132960FF90EF90DF90CF90BF90AF909F908F90AB
S11329707F906F905F904F903F902F900895CF92EB
S1132980DF92EF92FF920F931F93A89560E07FEF81
S11329908FEF9FEF0E9401038091E723811161C0B3
S11329A0A8951092132410921425109215251092B4
S11329B01424109216251092172560E070E080E030
S11329C092E00E94010367E070E080E096E20E94DA
S11329D00103E0911724F0911824C288D388009150
S11329E064241091652420911B2430911C2440916F
S11329F052255091532588E8E82E83E1F82E63EAA6
S1132A0074E284EE93E20E94631124EE34E241E224
S1132A1054E263EA74E284EE93E20E947D0B8091B7
S1132A20E4239091E523019709F04EC0E091172427
S1132A30F0911824C288D3880091642410916524ED
S1132A4020911B2430911C2425573F4F409152253F
S1132A505091532561E274E284EE93E20E94631183
S1132A6033C08130D1F4A89581E294E28093172495
S1132A709093182460E070E080E092E00E940103EB
S1132A8067E070E080E096E20E94010363EA74E28A
S1132A9084EE93E20E94CD0617C08230A9F4A89573
S1132AA081E294E2809317249093182460E070E00C
S1132AB080E092E00E94010367E070E080E096E22B
S1132AC00E9401030E94580FA8952FE788E391E024
S1132AD0215080409040E1F700C0000060E070E0C9
S1132AE0CB010E94010361E07FEF8FEF9FEF1F9105
S1132AF00F91FF90EF90DF90CF900C940103EF9231
S1132B00FF920F93CF93DF93CDB7DEB72897CDBF56
S1132B10DEBF7C0169834A832B8323E0AE014F5FD0
S1132B205F4F602F0E9462332FE788E391E02150CA
S1132B3080409040E1F700C0000080910E25909104
S1132B400F25F70121AD222319F085319105B8F045
S1132B5080930E2590930F25E7EAF1E63197F1F77C
S1132B6000C0000010920E2510920F252896CDBFAC
S1132B70DEBFDF91CF910F91FF90EF900895019602
S1132B80E0CFEF92FF920F93CF93DF93CDB7DEB7F1
S1132B902897CDBFDEBF7C01842F698302E021E04A
S1132BA0AE014F5F5F4F682FC7010E941F332FE7AD
S1132BB088E391E0215080409040E1F700C000009C
S1132BC080910E2590910F25F70121AD222319F054
S1132BD085319105C8F080930E2590930F25E7EA7F
S1132BE0F1E63197F1F700C0000010920E25109223
S1132BF00F25C7014C962896CDBFDEBFDF91CF913C
S1132C000F91FF90EF9008950196DECF0F93062F5A
S1132C102FEF45E460E00E947F152FE788E391E001
S1132C20215080409040E1F700C000000F910895CA
S1132C300C940616CF93DF9362E00E94C115EC0159
S1132C402FE788E391E0215080409040E1F700C0F5
S1132C5000006881898170E0762F6627680F711DF6
S1132C60072E000C880B990B0E94E6352AE037EDFD
S1132C7043EA5AE30E94F3369B01AC010E94CB3431
S1132C8020E030E048EC52E40E94F3360E94AE3576
S1132C90CB0161347F4110F080E090E0219611F483
S1132CA08FEF9FEFDF91CF9108950F931F93CF93F1
S1132CB0DF9300D0CDB7DEB761E00E94C1158C016F
S1132CC02FE788E391E0215080409040E1F700C075
S1132CD00000F8016081818170E0762F6627680F1B
S1132CE0711D072E000C880B990B0E94E6352CEA07
S1132CF035EC47E256E30E94F3362FE632E143E037
S1132D005BE30E943C3520E030E048EC52E40E9452
S1132D10F3360E94AE3569837A8389819A8181343E
S1132D209F4124F489819A8197FF02C019821A82F3
S1132D300F3F2FEF120711F409831A8389819A81B7
S1132D400F900F90DF91CF911F910F91089581E122
S1132D508093200610922406809340061092440625
S1132D6091E090936006109264068093800610921E
S1132D7084068093E0071092E40708951F93CF938D
S1132D80DF930E94A716E0E5F0E0808182608083F3
S1132D9087E893E10197F1F700C0000088ED84BF54
S1132DA011E01093400021E136E088E1E9018883D5
S1132DB0A2E1B6E08C93E3E1F6E080839881988306
S1132DC09C919C939081926090839EE090930A06DC
S1132DD010930906E1E0F6E0D0E2D08390E190831D
S1132DE0E5E0F6E0D083908392E0909341069093DF
S1132DF045068093500690938106909385068093B0
S1132E00900680EB8093610680E58093C00910935F
S1132E10A2002FE540E460E874E088E694E20E94B2
S1132E200A332FE540E460EA74E084E595E20E9409
S1132E300A338DE08093430081E290E080930A049A
S1132E4090930B041093020410930004D093020295
S1132E5081E88093200280E3809321021093000292
S1132E60DF91CF911F910895E3EAF4E224EC39E075
S1132E70228B338B88E893E1848B958B41E444AFB8
S1132E80E1E2F4E2228B338B848B958B80E484AF74
S1132E9081E008958F929F92AF92BF92CF92DF927A
S1132EA0EF92FF92CF93DF930E9434178093E8232D
S1132EB082E08093E72391E09093E92321E234E2D6
S1132EC02093172430931824109200241092012484
S1132ED010920224109203241092042410920524C8
S1132EE010920624109207241092082410920924A8
S1132EF010920A2410920B2410921224109213247C
S1132F001092162420E439E12093E4243093E5243C
S1132F1028EB3BE020930225309303252CED35E08C
S1132F202093042530930525109206251092072539
S1132F30109208251092092510920A2510920B254B
S1132F4010920C2510920D2510920E2510920F252B
S1132F501092122510921325109214251092152503
S1132F609093A324CCE2D1E0C093B324D093B424AF
S1132F70A2EEB4E0A093A424B093A524EFEFF3E071
S1132F80E093A624F093A724812C912CA12C20E477
S1132F90B22E8092C2249092C324A092C424B092F0
S1132FA0C524C12CD12C30E8E32E3FE3F32EC0928C
S1132FB0C624D092C724E092C824F092C9246CE4B9
S1132FC06093E0242AE02093E1244BEB5CE24093FD
S1132FD0D5245093D6242EEE3CE22093D72430936C
S1132FE0D8249093B0248093B2241092CC241092CD
S1132FF0CD241092CE241092CF241092BF2410928C
S1133000C0241092D0241092C1241092D224809310
S11330102124C0933124D0933224A0932224B0934A
S11330202324E0932424F093252480924024909236
S11330304124A0924224B0924324C0924424D092CA
S11330404524E0924624F092472460935E2469E08C
S113305060935F2440935324509354242093552425
S11330603093562490932E248093302410924A2433
S113307010924B2410924C2410924D2410923D2413
S113308010923E2410924E2410923F241092502409
S11330908CE791E280931C2590931D258AE891E2A8
S11330A080931E2590931F258CE392E28093202524
S11330B09093212589E592E28093222590932325FC
S11330C086E792E280932425909325258CE892E26A
S11330D0809326259093272582EA92E280932825DF
S11330E09093292589E991E280932A2590932B25B1
S11330F08DEB91E280932C2590932D2586EE91E221
S113310080932E2590932F258AE092E28093302598
S11331109093312583E392E2809332259093332573
S113312080E592E280933425909335258DE692E2F2
S1133130809336259093372583E892E2809338254F
S11331409093392589E992E280933A2590933B251F
S11331508FEA92E280933C2590933D2583ED92E2A1
S113316080933E2590933F258CEF92E280934025F7
S11331709093412580E293E28093422590934325E6
S113318089E493E2809344259093452586E693E26F
S1133190809346259093472583E893E280934825BE
S11331A09093492589E993E280934A2590934B258E
S11331B08FEA93E280934C2590934D2585EC93E21E
S11331C080934E2590934F2582ED93E28093502572
S11331D0909351258FE090E080935225909353254E
S11331E084E090E080931B2490931C2482E291E07D
S11331F0809364249093652410926624109267242B
S11332001092E2241092E3246AE080E090E00E94AD
S1133210EE2C8091E823882359F0E0915524F09115
S1133220562460915F2480913D2490913E24099519
S113323080E497E7ABE1B0E080931D2490931E24D3
S1133240A0931F24B093202482E390E08093192458
S113325090931A24DF91CF91FF90EF90DF90CF905D
S1133260BF90AF909F908F9008954F925F926F920E
S11332707F928F929F92AF92BF92CF92DF92EF9202
S1133280FF920F931F93CF93DF93CDB7DEB72897A9
S1133290CDBFDEBF4C01A8958091182590911925CA
S11332A0813D974038F480911A2590911B25813DEA
S11332B0974058F087E1898321E0AE014F5F5F4F6B
S11332C06CE488E694E20E94623380911624882399
S11332D0C1F02091B3243091B42448E25AE061E56E
S11332E084E595E20E9420322091312430913224E9
S11332F04AE25AE061E584E595E20E9420321092A8
S11333001624A89520910024309101244EE25AE01D
S113331061E584E595E20E942032209102243091F7
S1133320032440E35AE061E584E595E20E942032FB
S1133330209104243091052442E35AE061E584E5B8
S113334095E20E942032209106243091072444E320
S11333505AE061E584E595E20E9420322091082438
S11333603091092446E35AE061E584E595E20E9440
S1133370203220910A2430910B2448E35AE061E57D
S113338084E595E20E942032A895C4010E9479291F
S1133390A89580911524882359F182E08093B22462
S11333A0809330248091E823823058F483EA94E2B5
S11333B00E94F92984E690E08093B3249093B42486
S11333C014C0823091F483EA94E20E94F92904E65D
S11333D010E00093B3241093B42481E294E20E9499
S11333E0F9290093312410933224109215242FC20A
S11333F0C4010E947827A895F401818581110AC02F
S11334008285811107C082AD93AD892B19F4C40163
S11334100E949B28A8952091F8243091F92440918A
S1133420FA245091FB246091FC247091FD24809136
S1133430FE249091FF24A090F024B090F124C09039
S1133440F224D090F324E090F424F090F524009139
S1133450F6241091F7240E94AE382F3F30454542A0
S11334605240610571058105910509F020F48091B0
S1133470EA23882351F082E0D4011F968C9381E2E1
S113348094E280931724909318248091E62310915A
S11334900C24811136C1F401808D918D813AFFE0B5
S11334A09F0748F0D40156962D913C9157972430AC
S11334B0310508F426C1111124C120910D242111D4
S11334C022C120910E2421111EC120910F2421110B
S11334D01AC120911024211116C120911124211107
S11334E012C1F401228D338D2F313105A8F10497D7
S11334F098F586899789049778F56089718980E0C1
S113350090E00E94E435D40193962D913D914D9124
S11335105C9196970E94F3366B017C01F4016289F9
S1133520738980E090E00E94E4352B013C019B010B
S1133530AC01C701B6010E94373520E030E0A90193
S113354087FF03C0C701B60102C0C301B2010E94D4
S1133550963618160CF4D7C0A895C4010E94422EC2
S1133560A895D401D496ED91FC91D597DE966C91F3
S1133570DE975C968D919C915D9709952091E82347
S11335808091BD249091BE24D401D296ED91FC91FA
S1133590D397213061F43CE4C32EE090CF24009112
S11335A04C2420914D244091CE24BC010EC0609146
S11335B03B2470913C242CE4C22EE090CF24009153
S11335C04C2420914D244091CE240995BFE7EAE193
S11335D0F6E0B150E040F040E1F700C00000D40153
S11335E019968C911997811132C11A968C911A9758
S11335F081112DC1DA968D919C91DB97892B09F06D
S113360026C150966D917C91519780E090E00E9484
S1133610E435F40123A134A145A156A10E94F33657
S11336207B018C01D40152966D917C91539780E07B
S113363090E00E94E4355B016C019B01AC01B70191
S1133640C8010E94373587FD02C075018601F40167
S11336506689778980E090E00E94E4359B01AC01A3
S1133660B701C8010E94CA340E94AE359B0177FF9E
S113367004C022273327261B370B223031050CF4D4
S1133680E6C02091F8243091F9244091FA24509115
S1133690FB246091FC247091FD248091FE24909180
S11336A0FF24A090F024B090F124C090F224D09094
S11336B0F324E090F424F090F5240091F624109182
S11336C0F7240E94AE38203A3F4041055105610578
S11336D071058105910509F008F4B9C0D401169665
S11336E08C9116978111B3C017968C9117978111FD
S11336F0AEC015968C918111AAC0C4010E94E12B21
S1133700A6C0111115C080910D24811111C08091A2
S11337100E2481110DC080910F24811109C0809164
S11337201024811105C080911124882309F48FC0CD
S113373019821123A1F021E0AE014F5F5F4F61E4D4
S113374088E694E20E946233811109C080910E25BB
S113375090910F25019680930E2590930F258091CB
S11337600D248823A1F021E0AE014F5F5F4F60E498
S113377088E694E20E946233811109C080910E258B
S113378090910F25019680930E2590930F2580919B
S11337900E248823A1F021E0AE014F5F5F4F6AE061
S11337A088E694E20E946233811109C080910E255B
S11337B090910F25019680930E2590930F2580916B
S11337C00F248823A1F021E0AE014F5F5F4F69E031
S11337D088E694E20E946233811109C080910E252B
S11337E090910F25019680930E2590930F2580913B
S11337F010248823A1F021E0AE014F5F5F4F6CE4F9
S113380088E694E20E946233811109C080910E25FA
S113381090910F25019680930E2590930F2580910A
S113382011248823A1F021E0AE014F5F5F4F61E5D1
S113383088E694E20E946233811109C080910E25CA
S113384090910F25019680930E2590930F2528962D
S1133850CDBFDEBFDF91CF911F910F91FF90EF900D
S1133860DF90CF90BF90AF909F908F907F906F909C
S11338705F904F9008958F929F92AF92BF92EF9274
S1133880FF920F931F93CF93DF9300D000D0CDB757
S1133890DEB78C01FC01868581110DC081E086872D
S11338A064AD88E694E20E94181687EA91E60197CF
S11338B0F1F700C00000F8016089718980E090E0B0
S11338C00E94E435F80123A134A145A156A10E9428
S11338D0F3364B015C01F801E288F388B70180E01C
S11338E090E00E94E4359B01AC01C501B4010E9443
S11338F0373587FF05C0C501B4010E94AE3501C04C
S1133900B7016B837C83F80144AD60E088E694E200
S11339100E94551689839A838091E8238130D1F4DB
S1133920F80180819091A324891303C040915D2400
S113393006C09091212489130DC04091DF2460E0DA
S113394088E694E20E94551629813A81820F931FDA
S113395089839A8389819A810E944B11F801868B0D
S1133960978B29813A818B819C812817390721F40F
S11339708B819C81868B978BF80144AD60E088E64F
S113398094E20E941A160E944B11F801808F918FC5
S1133990248935898217930710F081E08783249660
S11339A0CDBFDEBFDF91CF911F910F91FF90EF90BC
S11339B0BF90AF909F908F9008958091080680FDEE
S11339C003C01092E323F9CF81E08093E32315B879
S11339D080E285B982E084B99DEF88ED08B618BE0F
S11339E084BF9093800008BE2FE78AE196E02150BF
S11339F080409040E1F700C00000A8950E94BE16E8
S1133A00A8950E943A02A895789440E064ED70E28B
S1133A1080E390E00E94C701A8950E944A17A895E8
S1133A20409164245091652460911B2470911C245E
S1133A3080915225909153250E945E06A8950E947C
S1133A407F24A8958CE40E94022DA89569E08AE061
S1133A500E94152DA8950E94BF14C0E04C2F64ED60
S1133A6070E280E390E00E94C7012FED82E292E0D1
S1133A70215080409040E1F700C00000CF5FC93181
S1133A8069F7A89588ED9BED08B618BE84BF90939E
S1133A9080009091820091FDFCCF08BE93E008B6AF
S1133AA018BE84BF909380002091820021FDFCCF3A
S1133AB008BE08B618BE84BF90938000909182001F
S1133AC091FDFCCF08BE97E008B618BE84BF909362
S1133AD080008091820081FDFCCF08BE01E011E0EE
S1133AE0C1E2D4E2A8958091080680FD14C010922A
S1133AF0E32380914800817F846080934800809113
S1133B0048008160809348008895809148008E7FAA
S1133B1080934800E8CF0E94DE298091E92388231E
S1133B2061F0E0911724F091182405870E946E2516
S1133B301093D12410934F2402C00E94A425A89569
S1133B408091EE249091EF24843F914058F280912B
S1133B50E4249091E524892B21F00E94F323482F3B
S1133B6001C040E064ED70E280E390E00E94C70190
S1133B70E0911724F09118248785823021F4C093B2
S1133B801724D0931824A89583EA94E20E943B1C3E
S1133B908091E8238150823020F481E294E20E94F3
S1133BA03B1CA8958091E92381110CC083EA94E21F
S1133BB00E9435198091E823823021F481E294E255
S1133BC00E9435191092EE241092EF248BCF1F928D
S1133BD00F920FB60F921124AF92BF92CF92DF9241
S1133BE0EF92FF920F931F932F933F934F935F9303
S1133BF06F937F938F939F93AF93BF93CF93EF93E1
S1133C00FF938091E323882309F4CBC28091EE24AF
S1133C109091EF2401968093EE249093EF242091C9
S1133C20F8243091F9244091FA245091FB246091B6
S1133C30FC247091FD248091FE249091FF24A1E046
S1133C400E94A2382093F8243093F9244093FA2454
S1133C505093FB246093FC247093FD248093FE24F2
S1133C609093FF248091EA249091EB24A091EC247A
S1133C70B091ED240196A11DB11D8093EA24909387
S1133C80EB24A093EC24B093ED248091E62490914E
S1133C90E724A091E824B091E9240196A11DB11D67
S1133CA08093E6249093E724A093E824B093E92436
S1133CB08091002590910125019680930025909391
S1133CC0012580910625909107250196809306256C
S1133CD0909307256091B9247091BA2480E090E014
S1133CE00E94E4356B017C016091B5247091B62487
S1133CF080E090E00E94E4352AE939E949E95FE38C
S1133D000E94F3369B01AC01C701B6010E949636AE
S1133D10181604F1609137247091382480E090E003
S1133D200E94E4356B017C0160913324709134244A
S1133D3080E090E00E94E4352AE939E949E95FE34B
S1133D400E94F3369B01AC01C701B6010E9496366E
S1133D50181654F480911825909119250196809392
S1133D6018259093192504C010921825109219252E
S1133D706091BB247091BC2480E090E00E94E43503
S1133D806B017C016091B7247091B82480E090E0CD
S1133D900E94E4352AE939E949E95FE30E94F336F0
S1133DA09B01AC01C701B6010E949636181604F1B6
S1133DB06091392470913A2480E090E00E94E435C7
S1133DC06B017C01609135247091362480E090E091
S1133DD00E94E4352AE939E949E95FE30E94F336B0
S1133DE09B01AC01C701B6010E949636181654F423
S1133DF080911A2590911B25019680931A25909302
S1133E001B2504C010921A2510921B2580910A25A7
S1133E1090910B25009739F0019780930A25909390
S1133E200B250E946E258091A124813021F0809180
S1133E308D25813009F580911025909111250196E9
S1133E40809310259093112585369105C8F081E063
S1133E508093A2002FE540E460E874E088E694E2F1
S1133E600E940A332FE540E460EA74E084E595E2B9
S1133E700E940A33A89504C01092102510921125AF
S1133E802091F8243091F9244091FA245091FB2494
S1133E906091FC247091FD248091FE249091FF2474
S1133EA028383341410551056105710581059105A6
S1133EB0E1F0D8F080910E2590910F25C397C8F0BA
S1133EC081E08093A2002FE540E460E874E088E696
S1133ED094E20E940A332FE540E460EA74E084E54A
S1133EE095E20E940A33A89504C010920E25109200
S1133EF00F25809108259091092501968093082526
S1133F00909309258536910500F12091F82430918C
S1133F10F9244091FA245091FB246091FC2470917F
S1133F20FD248091FE249091FF24283833414105DB
S1133F305105610571058105910539F030F00E9444
S1133F40BF141092082510920925809102259091A2
S1133F500325009749F00197809302259093032548
S1133F60892B11F41092E723C091E723C13009F0A3
S1133F70D0C02091F8243091F9244091FA24509132
S1133F80FB246091FC247091FD248091FE24909187
S1133F90FF24A090F024B090F124C090F224D0909B
S1133FA0F324E090F424F090F5240091F624109189
S1133FB0F7240E94AE38AAE00E94B73809F008F44A
S1133FC0A8C00E946E258091042590910525019733
S1133FD08093042590930525892B09F0A0C0809136
S1133FE0FF238150823008F49AC0809112248111F9
S1133FF096C01092E7238091E8239FEF980F9230A8
S113400008F042C08091E4239091E523813091052A
S1134010F1F424EC39E02093B5243093B62488E8F5
S113402093E18093B7249093B82441E44093DF2430
S1134030209333243093342480933524909336246E
S113404080E480935D2482E08093E8233BC0892B45
S1134050C9F588E893E18093B5249093B6248093BE
S1134060B7249093B82421E42093DF24809333244D
S113407090933424809335249093362480E4809361
S11340805D24C093E8231EC081111CC080ED97E01D
S11340908093B5249093B62488EB9BE08093B72457
S11340A09093B82421E42093DF24809333249093C5
S11340B0342488E893E1809335249093362480E473
S11340C080935D248091B5249091B6242091B324EB
S11340D03091B4248217930720F48093B3249093EF
S11340E0B42480913324909134242091312430914C
S11340F032248217930720F480933124909332243E
S11341001092CC241092CD2410924A2410924B2465
S113411006C08CED95E0809304259093052580914D
S1134120EA249091EB24A091EC24B091ED24843FF7
S11341309140A105B105A8F1E0911724F09118244C
S11341409785923018F481E0892787870E9441245B
S11341508091E4249091E524009789F0019780935D
S1134160E4249093E524892B51F482E08093E7239F
S113417040E064ED70E280E390E00E94C70180912A
S1134180E623882331F081508093E62381E08093F5
S113419016241092EA241092EB241092EC2410922C
S11341A0ED2481E080930304FF91EF91CF91BF91BF
S11341B0AF919F918F917F916F915F914F913F91BB
S11341C02F911F910F91FF90EF90DF90CF90BF90B0
S11341D0AF900F900FBE0F901F9018951F920F92E3
S11341E00FB60F9211242F933F934F935F936F93C6
S11341F07F938F939F93AF93BF93EF93FF9380919C
S1134200E323882321F088E694E20E94B534FF91E9
S1134210EF91BF91AF919F918F917F916F915F913A
S11342204F913F912F910F900FBE0F901F901895B3
S11342301F920F920FB60F9211242F933F934F9317
S11342405F936F937F938F939F93AF93BF93EF93FA
S1134250FF938091E323882321F084E595E20E9473
S1134260B534FF91EF91BF91AF919F918F917F9161
S11342706F915F914F913F912F910F900FBE0F90CF
S11342801F901895DC01E1E0F0E002C0EE0FFF1F83
S11342906A95E2F730E050E090E0941305C081E0C5
S11342A025131DC080E008955217C9F36C9170E086
S11342B06E237F23672B29F0332339F09F5F31E08E
S11342C008C0311104C09F5F04C031E001C030E078
S11342D090E086E08A95F1F700C05F5FDECF089535
S11342E01F920F920FB60F9211240F931F932F93C7
S11342F03F934F935F936F937F938F939F93AF936A
S1134300BF93CF93DF93EF93FF938091E3238823AD
S113431009F4C4C11092D12410924F241092C124E4
S113432010923F242CE34AE063E088E096E00E9488
S11343304221D82F2CE34AE061E088E096E00E9415
S11343404221C82F2CE34AE062E088E096E00E9414
S113435042218C2390E00D2F017010E080239123E3
S1134360892B09F49BC18091080683FD28C08091A4
S1134370E4249091E524E0911724F0911824892BEA
S113438031F488EB9BE0809302259093032582E02F
S113439087878091632481110BC01092E6241092C8
S11343A0E7241092E8241092E92481E080936324A6
S11343B080E499E18093E4249093E52449C18091B9
S11343C06224882309F406C18091E4249091E524B1
S11343D0892B09F4D0C08091080682FF5DC08091CA
S11343E0E723811112C08091172490911824FC01B5
S11343F02785223051F00E946623109214251092D2
S1134400152510921625109217252091E7232130A7
S113441009F0BDC0809112248823D1F08091FF233C
S1134420811106C08091192490911A24019760C0CB
S1134430813009F0ACC080911D2490911E24A0917C
S11344401F24B0912024885E9340A109B10964C05F
S113445010921425109215258091162590911725F8
S1134460019680931625909317254F9720F020935B
S11344701424109213248091142481111092FF2388
S113448080911324882309F482C08091FF23882318
S113449009F47DC081506CC08091080681FF77C00B
S11344A08091E723811112C08091172490911824E0
S11344B0FC012785223051F00E94A3231092142579
S11344C01092152510921625109217252091E72396
S11344D0213009F05CC080911224882331F180914D
S11344E0FF2381110AC08091192490911A24019606
S11344F08093192490931A244AC0813009F047C04C
S113450080911D2490911E24A0911F24B0912024F9
S113451088519C4FAF4FBF4F80931D2490931E240E
S1134520A0931F24B093202432C08091142590912D
S11345301525019680931425909315251092162520
S1134540109217254F9720F02093132410921424CF
S113455080911424882319F081E08093FF238091B3
S113456013248823A1F08091FF23823080F48F5F8D
S11345708093FF230CC088EB9BE0809302259093EB
S11345800325E0911724F091182482E08787809115
S1134590022590910325892B11F40E946E2580E455
S11345A099E18093E4249093E5241092E6241092F8
S11345B0E7241092E8241092E924109262241092C5
S11345C06124109260248FE097E20197F1F700C014
S11345D000003EC0909108068091612492FD17C0AE
S11345E0811115C081E08093612480916024882327
S11345F079F181E080936224E7E8F3E13197F1F700
S113460000C00000109261241092602421C0909197
S1134610080691FD08C090916024911104C091E0B6
S113462090936024E4CF882359F08091080681FF99
S113463007C010926024109261241092622408C072
S113464080916024882321F08091080682FDF1CFB7
S1134650E0911724F091182481E085878091F82453
S11346608093F0248091F9248093F1248091FA249A
S11346708093F2248091FB248093F3248091FC2482
S11346808093F4248091FD248093F5248091FE246A
S11346908093F6248091FF248093F7248FEF8093F6
S11346A00C06FF91EF91DF91CF91BF91AF919F9154
S11346B08F917F916F915F914F913F912F911F91B6
S11346C00F910F900FBE0F901F901895EF92FF92CD
S11346D00F931F93CF93DF937C01FC01C089D18991
S11346E0CA30D10548F182E08093E6232091E62484
S11346F03091E7244091E8245091E9242F3031058A
S11347004105510588F468EC70E080E090E00E9477
S1134710FC3789019A01C8016AE070E00E94E83719
S1134720081B190BC01BD10B2A97D7FF02C0C0E08E
S1134730D0E0F701C08BD18BDF91CF911F910F9106
S1134740FF90EF9008958F929F92AF92BF92EF9255
S1134750FF920F931F93CF93DF938C01FC01C089C9
S1134760D189E288F388C7010A978C179D0750F115
S113477082E08093E6232091E6243091E72440915F
S1134780E8245091E9242F3031054105510588F47E
S113479068EC70E080E090E00E94FC3749015A0127
S11347A0C9016AE070E00E94E837881A990AC80DC6
S11347B0D91D2A96EC16FD0608F4E701F801C08B12
S11347C0D18B06C0CE15DF0519F481E0F80185838D
S11347D0DF91CF911F910F91FF90EF90BF90AF9019
S11347E09F908F900895CF93DF9300D000D0CDB7E2
S11347F0DEB780912002806880932002809123029A
S113480080FFFCCF609124027091250280E090E04B
S11348100E94E43569837A838B839C83809124028C
S1134820909125026EE170E00E94D437862F249681
S1134830CDBFDEBFDF91CF91089580E2809305065E
S113484080E1809307060895909104068091040600
S113485090728071981307C080E28093070680E10C
S113486080930706089580E28093060680E1809392
S11348700606089580E28093070680E1809305068A
S113488008952091F8243091F9244091FA2450910C
S1134890FB246091FC247091FD248091FE2490916E
S11348A0FF24273833414105510561057105810510
S11348B0910509F038F480E18093050680E2809345
S11348C0050608958091E923811110C08091B924CF
S11348D09091BA24059750F08091E823823041F4F6
S11348E08091372490913824059710F40C941D245A
S11348F08091EA2381110C9424240C943A2448E2F4
S11349005AE061E584E595E20E946A2D8093B32420
S11349109093B4244AE25AE061E584E595E20E946A
S11349206A2D80933124909332244CE25AE061E55D
S113493084E595E20E946A2D8093E4239093E52315
S11349408091B3249091B42489389341B0F080913C
S11349500A2490910B24019680930A2490930B24AB
S11349601092B3241092B42420E030E048E25AE0DC
S113497061E584E595E20E94203280913124909192
S1134980322489389341C0F080910A2490910B24F9
S1134990019680930A2490930B2410923124109250
S11349A032242091B3243091B4244AE25AE061E5E0
S11349B084E595E20E9420328091E4239091E523DE
S11349C00297B0F080910A2490910B240196809371
S11349D00A2490930B241092E4231092E52320E000
S11349E030E04CE25AE061E584E595E20E94203231
S11349F08091E82381110DC01092E4231092E523E5
S1134A0020E030E04CE25AE061E584E595E20E9462
S1134A1020328091E8239FEF980F923008F041C034
S1134A208091E4239091E52381309105E1F424EC15
S1134A3039E02093B5243093B62488E893E1809339
S1134A40B7249093B82441E44093DF242093332483
S1134A5030933424809335249093362480E48093D7
S1134A605D2482E01BC0892BC1F588E893E1809323
S1134A70B5249093B6248093B7249093B82421E46A
S1134A802093DF248093332490933424809335241B
S1134A909093362480E480935D2481E08093E8231E
S1134AA0089581111AC020ED37E02093B524309386
S1134AB0B62488EB9BE08093B7249093B82441E418
S1134AC04093DF242093332430933424809335247B
S1134AD09093362480E480935D2408951092EA2311
S1134AE0A3EAB4E218961C92189719961C92199787
S1134AF01B961C921B971A961C921A971C961C9232
S1134B001C97E1E2F4E2108611861386128614865D
S1134B1056968D919C915797D6968D939C93D79743
S1134B2058968D919C915997D8968D939C93D9972B
S1134B308689978986AB97AB808D918D80AF91AF35
S1134B401D961C921586089580916324882309F488
S1134B50CEC18091080683FDA9C08091E62490917E
S1134B60E724A091E824B091E924803D27E092074E
S1134B70A105B10520F081E08093E7230895883EE4
S1134B809340A105B10508F4B2C12091E723213077
S1134B9009F0ADC11092E7238091E8239FEF980FAD
S1134BA0923008F042C08091E4239091E523813053
S1134BB09105F1F424EC39E02093B5243093B62424
S1134BC088E893E18093B7249093B82441E4409318
S1134BD0DF2420933324309334248093352490931A
S1134BE0362480E480935D2482E08093E82339C0F6
S1134BF0892BB9F588E893E18093B5249093B62482
S1134C008093B7249093B82431E43093DF248093C5
S1134C10332490933424809335249093362480E471
S1134C2080935D242093E8231CC081111AC020EDD9
S1134C3037E02093B5243093B62488EB9BE080932F
S1134C40B7249093B82441E44093DF242093332481
S1134C5030933424809335249093362480E48093D5
S1134C605D248091B5249091B6242091B324309191
S1134C70B4248217930720F48093B3249093B4242C
S1134C808091332490913424209131243091322422
S1134C908217930720F48093312490933224E09177
S1134CA01724F091182411A612A6089580910806DD
S1134CB083FF1DC19091E723913009F09FC040917B
S1134CC0E6245091E7246091E8247091E924483E59
S1134CD053406105710508F0E7C0209112248091CA
S1134CE0FF232223C9F0811103C09093FF23DCC06A
S1134CF0813021F482E08093FF23D6C0823009F012
S1134D00D3C01092E7231092FF2310921224109222
S1134D10132410921424C8C0811125C08091E82363
S1134D20882309F4C1C08091E4239091E52300977E
S1134D3039F481E090E08093E4239093E5230CC060
S1134D40019751F41092E4231092E52383EA94E24C
S1134D5080931724909318242091E4233091E52321
S1134D604CE25AE038C0813009F0A9C08091132484
S1134D708823B9F120E030E04EE25AE061E584E5B1
S1134D8095E20E94203220E030E040E35AE061E501
S1134D9084E595E20E94203220E030E042E35AE0CC
S1134DA061E584E595E20E94203220E030E044E3AE
S1134DB05AE061E584E595E20E94203220E030E08B
S1134DC046E35AE061E584E595E20E94203220E062
S1134DD030E048E35AE061E584E595E20E94203240
S1134DE063C080911424882309F45EC081E0809319
S1134DF015241092E7231092FF2356C0911154C03A
S1134E008091E6249091E724A091E824B091E924CC
S1134E10883E9340A105B10508F046C08091E42383
S1134E209091E523009769F483EA94E28093172430
S1134E309093182482E08093302481E08093B224FC
S1134E4022C0019701F5E0911724F0911824808184
S1134E509091A324891310C09785923069F481E25C
S1134E6094E2809317249093182482E08093B224D0
S1134E7081E08093302407C090912124891303C0DA
S1134E808785823089F2E0911724F0911824878570
S1134E90823011F481E087878091EA23882321F00E
S1134EA082E087870E946E25109263241092E62484
S1134EB01092E7241092E8241092E9240895823095
S1134EC099F780911324882379F31092FF2380E3C8
S1134ED095E7A0E0B0E080931D2490931E24A09356
S1134EE01F24B093202481E080931224DDCF089501
S1134EF0CF92DF92EF92FF920F931F93CF93DF93A2
S1134F00CDB7DEB72997CDBFDEBF8C0180910625D2
S1134F1090910725A0E0B0E040911D2450911E24FB
S1134F2060911F247091202484179507A607B70762
S1134F300CF48FC0109206251092072586E189870C
S1134F4021E0AE01475F5F4F6CE488E694E20E9483
S1134F50623348E06CE488E694E20E947F338FE495
S1134F6093EC0197F1F700C0000080918424209114
S1134F70852490E0982F8827820F911D8F8398872E
S1134F80809186242091872490E0982F8827820F8F
S1134F90911D8D839E83809188242091892490E0A3
S1134FA0982F8827820F911D8B839C8380918A245C
S1134FB020918B2490E0982F8827820F911D89835C
S1134FC09A832F8138858091192490911A24281767
S1134FD0390718F421E02093AC249C01265F3F4F4D
S1134FE04F8158852417350710F41092AC24409152
S1134FF0E8234150423068F54D815E8148175907D6
S113500018F441E04093AD244D815E8124173507A7
S113501010F41092AD244B815C814817590718F4A1
S113502041E040932A244B815C812417350710F416
S113503010922A2449815A814817590718F481E0AB
S113504080932B2489819A812817390710F41092B0
S11350502B24F801218582AD93AD211103C0328543
S1135060332339F001968B35910550F08AE590E0B1
S113507007C00097C9F10197F80182AF93AF34C01C
S1135080F80182AF93AF222379F181E08093EA2380
S1135090F801838782AD93AD6AE070E00E94D43753
S11350A0CB0169E070E0681B790B80E090E00E941E
S11350B0E43520E030E040E251E40E943C356B01ED
S11350C07C012DEC3CEC4CEC5EE30E943735F8019E
S11350D087FD05C0C3A2D4A2E5A2F6A220C013A2F4
S11350E014A215A216A21BC0F80182AD93AD892BA0
S11350F061F6F8018285882349F081E08093EA23F0
S1135100848786E696E6A6E6BFE305C080E090E0E5
S1135110A0E8BFE3F80183A394A3A5A3B6A32996AB
S1135120CDBFDEBFDF91CF911F910F91FF90EF9024
S1135130DF90CF9008958F929F92AF92BF92CF92BB
S1135140DF92EF92FF92CF93DF93EC018091AC2436
S113515081114DC08091AD24811149C08091DD241D
S11351609091DE24892B09F042C08091D92490913A
S1135170DA24892BE1F16091BB247091BC2480E096
S113518090E00E94E4356B017C016091DB24709116
S1135190DC2480E090E00E94E4354B015C0123E3D1
S11351A033E343E95FE30E94F3369B01AC01C7019B
S11351B0B6010E949636181684F02AE939E949E5C1
S11351C05FE3C501B4010E94F3369B01AC01C70142
S11351D0B6010E94373587FF0AC08091D32490918D
S11351E0D42401968093D3249093D42404C01092A1
S11351F0D3241092D4248091D3249091D424893739
S1135200910528F081E08093AB248093EA23988170
S11352108091A324981709F451C080912A24811104
S11352204DC080912B24811149C080915B249091C1
S11352305C24892B09F042C0809157249091582412
S1135240892BE1F16091392470913A2480E090E057
S11352500E94E4356B017C016091592470915A24B9
S113526080E090E00E94E4354B015C0123E333E3EA
S113527043E95FE30E94F3369B01AC01C701B60129
S11352800E949636181684F02AE939E949E55FE365
S1135290C501B4010E94F3369B01AC01C701B601FC
S11352A00E94373587FF0AC080915124909152247F
S11352B00196809351249093522404C01092512457
S11352C0109252248091512490915224893791054F
S11352D028F081E0809329248093EA23DF91CF9101
S11352E0FF90EF90DF90CF90BF90AF909F908F9002
S11352F00895AF92BF92CF92DF92EF92FF920F93F5
S11353001F93FC012091F8243091F9244091FA2450
S11353105091FB246091FC247091FD248091FE2423
S11353209091FF24A090F024B090F124C090F22436
S1135330D090F324E090F424F090F5240091F62426
S11353401091F7240E94AE382738334141055105A6
S1135350610571058105910541F138F18585882341
S113536021F18091B9249091BA248093D924909307
S1135370DA248091BB249091BC248093DB24909305
S1135380DC2480913724909138248093572490937F
S113539058248091392490913A24809359249093ED
S11353A05A241092B02410922E241F910F91FF9032
S11353B0EF90DF90CF90BF90AF9008952091E923B4
S11353C090910806892F8095881F8827881F8093CD
S11353D0E923281731F028EE33E020930A2530938F
S11353E00B2597FD05C082E08093B224809330247E
S11353F008952F923F924F925F926F927F928F9275
S11354009F92AF92BF92CF92DF92EF92FF920F934F
S11354101F93CF93DF93EC011A8E1B8E1C8E1D8E6F
S11354208091E8238823A9F0823051F498818091F7
S1135430A324981799F07CEAE72E73E0F72E06C0B0
S1135440813089F464EBE62E65E0F62E04E610E084
S11354500CC0E12CF12C08E710E007C054EAE52E5B
S1135460FF24F394F3CF00E010E068018A899B895C
S11354708C159D0508F4BAC0C88AD98AA89545E652
S1135480A42EB12C6889798980E090E00E94E435EB
S11354902BA13CA14DA15EA10E94F3363B014C011E
S11354A06A897B8980E090E00E94E4351B012C012D
S11354B09B01AC01B301C4010E94373587FD02C0D2
S11354C0310142016E897F8980E090E00E94E435D9
S11354D09B01AC01B301C4010E94CA340E94AE35E1
S11354E09B0177FF04C022273327261B370B22306A
S11354F031055CF0A89560E0CE010E94662FA89566
S113550021E0A21AB10809F0BDCF8FE79AE126E0A5
S1135510815090402040E1F700C00000A895CE01E2
S11355200E943B1CA8958FE79AE126E081509040A9
S11355302040E1F700C0000035E6A32EB12C6889B5
S1135540798980E090E00E94E4352BA13CA14DA133
S11355505EA10E94F3363B014C016A897B8980E09D
S113556090E00E94E4351B012C019B01AC01B301C6
S1135570C4010E94373587FD02C0310142016E89A2
S11355807F8980E090E00E94E4359B01AC01B30187
S1135590C4010E94CA340E94AE359B0177FF04C047
S11355A022273327261B370B223031055CF0A895C0
S11355B060E0CE010E94662FA89581E0A81AB10888
S11355C009F0BDCF2A8D3B8DC60165E070E00E94D5
S11355D0E837AB014E0D5F1D61E584E595E20E945D
S11355E02032A8959AE0C90ED11C40CF0A50110967
S11355F025E0A22EB12C17FDD1C0088B198BA895DC
S113560095E6C92ED12C6889798980E090E00E94C2
S1135610E4352BA13CA14DA15EA10E94F3363B01D0
S11356204C016A897B8980E090E00E94E4351B018B
S11356302C019B01AC01B301C4010E94373587FDE5
S113564002C0310142016E897F8980E090E00E94AE
S1135650E4359B01AC01B301C4010E94CA340E9429
S1135660AE359B0177FF04C022273327261B370B57
S113567022303105BCF0A89560E0CE010E94662F6F
S1135680A895ECA9FDA96EAD8C8D9D8D099587EA31
S113569091E60197F1F700C0000091E0C91AD10822
S11356A009F0B1CF2FE78AE196E021508040904085
S11356B0E1F700C00000A895CE010E943B1CA8950C
S11356C02FE78AE196E0215080409040E1F700C046
S11356D0000085E6C82ED12C6889798980E090E0A5
S11356E00E94E4352BA13CA14DA15EA10E94F3369A
S11356F03B014C016A897B8980E090E00E94E4359B
S11357001B012C019B01AC01B301C4010E9437357C
S113571087FD02C0310142016E897F8980E090E0FB
S11357200E94E4359B01AC01B301C4010E94CA3458
S11357300E94AE359B0177FF04C022273327261B26
S1135740370B22303105BCF0A89560E0CE010E94F1
S1135750662FA895ECA9FDA96EAD8C8D9D8D09953C
S113576087EA91E60197F1F700C0000091E0C91AB9
S1135770D10809F0B1CFA8952C8D3D8DC801B50194
S11357800E94E837AB014E0D5F1D61E584E595E2AB
S11357900E942032A8950A5011092DCFDF91CF9194
S11357A01F910F91FF90EF90DF90CF90BF90AF903B
S11357B09F908F907F906F905F904F903F902F902D
S11357C008958F929F92AF92BF92EF92FF920F93A0
S11357D01F93CF93DF9300D0CDB7DEB78C01A8958C
S11357E0DC0150966D917C91519780E090E00E948D
S11357F0E435F80123A134A145A156A10E94F33652
S11358004B015C01D8015296ED90FC905397B7017F
S113581080E090E00E94E4359B01AC01C501B40135
S11358200E94373587FF05C0C501B4010E94AE351B
S113583001C0B70169837A838091E8238823C1F08A
S1135840823069F4F80190818091A324981799F02B
S113585084E690E04CEAE42E43E0F42E17C0813055
S113586089F484E690E034EBE32E35E0F32E0EC0A9
S113587088E790E009C084E690E024EAE22EFF2461
S1135880F39404C080E090E0E12CF12CA8952981E8
S11358903A812817390724F1A89529813A81D8013A
S11358A056968D919C915797821B930B97FF03C03B
S11358B09195819591090B9714F460E001C061E022
S11358C0C8010E94662FA89589819A81F8012185D3
S11358D0211144C02285211141C0228D338D32C053
S11358E0D80158968D919C9159978C3B9240B0F574
S11358F0A89560E0C8010E94662FA895D801D496A7
S1135900ED91FC91D597DE966C91DE975C968D9126
S11359109C915D970995E7EAF1E63197F1F700C0AC
S1135920000089819A81D80119962C911997211127
S113593015C01A962C911A97211110C05C962D91BE
S11359403C915D9765E070E00E94E837AB014E0D35
S11359505F1D61E584E595E20E9420320F900F906F
S1135960DF91CF911F910F91FF90EF90BF90AF9077
S11359709F908F900895CF92EF92FF920F931F9371
S1135980CF93DF93CDB7DEB72697CDBFDEBF35E12A
S113599039838A839B836C837D8384E0089F8001A1
S11359A01124042B88E0E89E70011124E02A220FC0
S11359B0E22AEE8226E0AE014F5F5F4F6C2D88E64F
S11359C094E20E9462332696CDBFDEBFDF91CF9171
S11359D01F910F91FF90EF90CF900895CF93DF9395
S11359E000D0CDB7DEB799838A8322E0AE014F5F42
S11359F05F4F88E694E20E9462330F900F90DF912C
S1135A00CF910895CF92EF920F93C82EEE24E39492
S1135A1001E021E041E060E070E080E090E00E947D
S1135A20BB2C0F91EF90CF900895CF93C62F682F82
S1135A3080E090E00E94EE2C8091E823882331F0EE
S1135A406C2F80E090E0CF910C94EE2CCF910895D0
S1135A50E3EAF4E281E083A714A6E1E2F4E213A608
S1135A6014A608956A3F710534F481E08093CE242E
S1135A701092CF2409C0643F81E0780744F481E0A8
S1135A808093CE248093CF2410924C240AC06E3E7F
S1135A90724054F481E08093CE248093CF24809389
S1135AA04C2410924D24089581E08093CE24809359
S1135AB0CF2480934C2480934D240895FC01643FAB
S1135AC0714024F481E083A714A6089581E084A79B
S1135AD083A70895DF92EF92FF920F931F93CF93C2
S1135AE0DF93CDB7DEB72897CDBFDEBF7C01D62EBE
S1135AF08A0119834A8322E0AE014F5F5F4F84E538
S1135B0095E20E9462332FE738E381E02150304070
S1135B108040E1F700C0000080910E2590910F2590
S1135B20F70121AD222319F08531910510F18093FD
S1135B300E2590930F25E7EAF1E63197F1F700C0BF
S1135B40000010920E2510920F2541E06D2D84E582
S1135B5095E20E947F33FFE728E331E0F1502040D3
S1135B603040E1F700C0000080910E2590910F2590
S1135B7006C00196D5CF8531910528F40196F70129
S1135B8021AD2111F8CF80930E2590930F2587EA3C
S1135B9091E60197F1F700C0000010920E251092D3
S1135BA00F2598012F5F3F4FF701848D90E0182F48
S1135BB0002739832A8322E0AE014F5F5F4F6D2DAA
S1135BC084E595E20E946233FFE728E331E0F15077
S1135BD020403040E1F700C0000080910E259091F4
S1135BE00F2504C08531910528F40196F70121ADF4
S1135BF02111F8CF80930E2590930F2587EA91E623
S1135C000197F1F700C0000010920E2510920F25A5
S1135C1041E06D2D84E595E20E947F339FE7E8E340
S1135C20F1E09150E040F040E1F700C000008091C5
S1135C300E2590910F2504C08531910528F4019615
S1135C40F70121AD2111F8CF80930E2590930F25F4
S1135C5087EA91E60197F1F700C0000010920E2543
S1135C6010920F25F701848D9801282BC9012896DD
S1135C70CDBFDEBFDF91CF911F910F91FF90EF90C9
S1135C80DF9008956F927F928F929F92AF92BF920E
S1135C90CF92DF92EF92FF920F931F93CF93DF93F4
S1135CA000D000D0CDB7DEB78C01FC0160897189CA
S1135CB080E090E00E94E435F80123A134A145A1DD
S1135CC056A10E94F3364B015C01F801C288D388C7
S1135CD0B60180E090E00E94E4359B01AC01C5016F
S1135CE0B4010E94373587FF05C0C501B4010E9485
